:020000040001F9
:10600000B0310020F56001000F6101001161010055
:106010000000000000000000000000000000000080
:1060200000000000000000000000000013610100FB
:106030000000000000000000156101001761010070
:106040001961010019610100196101001961010064
:106050001961010000000000799801001961010038
:106060001961010019610100196101001961010044
:106070001961010019610100196101001961010034
:1060800019610100338D01001961010019610100DE
:10609000558D010019610100D394010019610100BF
:1060A00019610100196101000000000000000000FA
:1060B00000000000000000000000000000000000E0
:1060C0000348854604F030FB00480047276901007B
:1060D000B0310020401E00BF00BF00BF00BF00BFA6
:1060E00000BF00BF00BF00BF00BF00BF00BFF1D1B5
:1060F000704700000321094802680A43026008480B
:1061000002680A4302600748804707480047FEE7E5
:10611000FEE7FEE7FEE7FEE7FEE70000240500409D
:1061200054050040D1610100C1600100324833498B
:10613000086070473248008CC0B2012812D1304844
:10614000808C0007000F00280CD12D48806AF021B8
:106150000840402806D12A48C06A0840002801D1DA
:10616000012070470020FCE72548008CC0B20128C0
:106170002CD12348808C0007000F002826D120480E
:10618000806AF0210840002806D11D48C06A0840F6
:10619000002801D1012070471948806AF021084089
:1061A000102806D11648C06A0840002801D10120F5
:1061B000F1E71348806AF0210840302806D11048E2
:1061C000C06A0840002801D10120E4E70020E2E78E
:1061D00010B5FFF7C9FF002805D00A480A494860F2
:1061E000C8130A498861FFF7A5FF002802D00120E3
:1061F0000749886010BD00000024F4000020002042
:10620000C00F00F0DFFF07C000050040006C004039
:106210000006004070B504460D4616463246294633
:10622000204603F01FFD70BD70B504460D462A469A
:106230002146F848FFF7EEFF70BD10B504F018F9DD
:1062400010BDF8B500BFF448F44B052206210090BC
:10625000022002F083FD054600BF2E46002E06D028
:1062600000BFEFA2BA213046FFF7D4FF00BF00BF46
:1062700000BFEE4A0021EE4802F0EDFD044600BFEB
:106280002546002D06D000BFE5A2BF212846FFF716
:10629000C1FF00BF00BFE74A0021E74802F0DBFD75
:1062A000044600BF2546002D06D000BFDCA2C12158
:1062B0002846FFF7AFFF00BF00BFE04A0121E048DA
:1062C00002F0C9FD044600BF2546002D06D000BFE0
:1062D000D3A2C3212846FFF79DFF00BF00BFF8BD32
:1062E0003EB500BF6846007801090901491C0091CC
:1062F00068460078F02188431030009000BF0F22DC
:10630000D0A168467CDF044600BF2546002D06D09C
:1063100000BFC3A2D7212846FFF77CFF00BF00BF04
:10632000002001900290FF21913168468180490050
:10633000C18000210181FF219131418101A87ADFD3
:10634000044600BF2546002D06D000BFB4A2E521BB
:106350002846FFF75FFF00BF00BF3EBD30B591B0DC
:1063600005210291BB4800680190382103A804F080
:10637000C2F902216846017301218173018202A9D9
:1063800005910121818401A90A91002103A801F04E
:106390006BFF044600BF2546002D07D000BFA0A21A
:1063A000FF2103312846FFF735FF00BF00BF11B0C2
:1063B00030BD70B506460C462578162000F0D8FA98
:1063C00062782178062003F0EFFF70BDF8B507462C
:1063D0000D462C780026002C13D1A8789E49087011
:1063E0000846007824214843801D9B4908701321EA
:1063F0009948007804F052F997490870601E97494F
:106400000870964900200856401C844228D1132069
:1064100026464643012006E0295C914A9155711CAD
:106420008EB2411CC8B21328F6DD8B480078844236
:1064300013D18B4803F008FD002809D0F1B2884839
:1064400003F0E5FF00220121032003F0ADFF04E08B
:1064500000220221032003F0A7FF60B27F490870E9
:10646000F8BD30B587B07F4800907F4801906946FD
:106470007E4800F09EFD044600BF2546002D07D053
:1064800000BF67A2FF2149312846FFF7C3FE00BFC6
:1064900000BF07B030BD1E207549088008468078CF
:1064A00040084000401C88700846807802218843DC
:1064B0006F498870084680781C2188430C306C49ED
:1064C00088700846807820218843694988700720B1
:1064D000C87010200871704770B5054628780028EC
:1064E00011D13B216348008876DF044600BF264671
:1064F000002E07D000BF4AA2FF216D313046FFF7C2
:1065000089FE00BF00BF70BD10B5044600BF44A2A5
:10651000FF2178312046FFF77DFE00BF10BD30B56A
:1065200087B01C21684604F0E6F80020009052482D
:1065300001900520000402900321684601730021A8
:10654000C18101744D4805904D480690684602F09F
:10655000EAFD044600BF2546002D07D000BF30A24B
:10656000FF218F312846FFF755FE00BF00BF07B05F
:1065700030BD70B50024002264213148006802F06B
:10658000B1FC044600BF2546002D07D000BF24A261
:10659000FF2199312846FFF73DFE00BF00BF70BDC7
:1065A00030B585B01421684604F0A5F8002168468E
:1065B0000170002001906846017240210182B421DF
:1065C000418273DF044600BF2546002D07D000BF7F
:1065D00013A2FF21AE312846FFF71CFE00BF00BF0B
:1065E000102000F0C0F905B030BDF8B50546288888
:1065F00014286FD006DC102844D011284CD0132862
:1066000069D153E017287DD019287AD05228F7D1C4
:1066100063E00000EFBEADDE7B6901008421002055
:106620002E2E5C6D61696E2E630000007DA301005B
:106630000C21002089A30100102100209DA201004F
:10664000142100204D696368726F6E20424C452012
:10665000315F3000C0A701000C2000200D20002079
:106660003C240020B3630100CD6301004C210020D5
:10667000042000200A20002055D50000D964010024
:1066800009650100102000F06EF9102000F070F98B
:10669000A888DF4908808DE0102000F069F900200B
:1066A000C043DB490880FFF77BFF83E0D94A002124
:1066B000D74800887FDF044600BF2746002F07D059
:1066C00000BFD54AFF21E1313846FFF7A3FD00BFE7
:1066D00000BF6FE01CE06CE014E000221146CC48E3
:1066E0000088A9DF044600BF2746002F07D000BF5F
:1066F000C94AFF21E6313846FFF78CFD00BF00BFD5
:1067000058E032E03222A91DC44803F0DBFF51E01B
:10671000C24EB61D3188E889814212D1002231462D
:10672000BB48008881DF044600BF2746002F07D002
:1067300000BFB94AFF21F2313846FFF76BFD00BFB9
:1067400012E000221146B248008881DF044600BFF3
:106750002746002F07D000BFAF4AFF21F831384647
:10676000FFF758FD00BF00BF24E0A87900281FD123
:10677000102000F0FDF8102003210091009A12046F
:106780008B001A4305231B0707273F02DB198700ED
:10679000DA5100BF34DF044600BF2746002F06D081
:1067A00000BF9D4A9E493846FFF734FD00BF00BF39
:1067B00000E000BF00BFF8BD10B504462046FFF75B
:1067C00014FF204602F083FD2146964800F0D4FBDA
:1067D00010BD10B50446204600F0DBFE10BDF8B534
:1067E00000BF0023502290490B2002F02AFE0546EC
:1067F00000BF2E46002E07D000BF874A8849363199
:106800003046FFF707FD00BF00BF00BF002000902B
:106810000090684660DF044600BF2546002D07D083
:1068200000BF7D4A912189002846FFF7F3FC00BF95
:1068300000BF7E4802F03BFE044600BF2546002D07
:1068400007D000BF744A4921C9002846FFF7E2FC7F
:1068500000BF00BF764802F033FE044600BF254665
:10686000002D07D000BF6C4A932189002846FFF70E
:10687000D1FC00BF00BFF8BD70B500BF6D4A0A2152
:10688000082001F039FD044600BF2546002D07D041
:1068900000BF614A952189002846FFF7BBFC00BF75
:1068A00000BF00BF70BD70B500BF6349012003F099
:1068B00063F8044600BF2546002D07D000BF564AA6
:1068C00057496E312846FFF7A5FC00BF00BF00BF47
:1068D00070BD70B500BF594B514A1B320121584859
:1068E00002F0C7FE044600BF2546002D07D000BFBA
:1068F000494A4B497F312846FFF78CFC00BF00BF57
:1069000000BF70BD70B540DF044600BF2546002DB6
:1069100007D000BF404A42498C312846FFF77AFC35
:1069200000BF00BF70BDFFF788FCFFF78AFCFFF7D0
:10693000BAFFFFF7CEFFFFF752FFFFF79DFFFFF70C
:10694000CFFCFFF70BFDFFF78CFDFFF7E8FDFFF72E
:10695000A2FD03F052FDFFF70CFEFFF721FE00BF82
:1069600001F08CFDFCE701218140364A91607047BF
:1069700001218140334AD16070477CB504460D4601
:1069800000940195304A0821684601F0D6FC7CBD90
:106990007CB504460D46164600946846057146715E
:1069A0002A4A082101F0C9FC7CBDF8B504460D4611
:1069B000264600BF082D01D1012000E00020074637
:1069C000002F06D100BF22A2FF211B31FFF722FCBE
:1069D00000BF00BF316870688847F8BDF8B505464C
:1069E0000E462C4600BF082E01D1012000E00020F9
:1069F0000746002F05D100BF21A2A821FFF70AFCFE
:106A000000BF00BF6179207922689047F8BD00007F
:106A10000A2000200420002020660100A824002075
:106A2000070200004C210020DC240020B96701008F
:106A3000D36701002C250020DC250020916901008E
:106A40001020002000050050AB690100DD69010045
:106A50002E2E5C2E2E5C2E2E5C2E2E5C2E2E5C4955
:106A60006E636C7564655C6170705F636F6D6D6F94
:106A70006E5C6170705F74696D65722E68000000F5
:106A80002E2E5C2E2E5C2E2E5C2E2E5C2E2E5C4925
:106A90006E636C7564655C6170705F636F6D6D6F64
:106AA0006E5C6170705F627574746F6E2E6800004A
:106AB0008A88828670470022D2438286704770B5EA
:106AC00004460E46B51D2888618C884207D120688F
:106AD000002804D029461A31204622689047288889
:106AE000618B884207D16068002804D029461A319A
:106AF00020466268904770BD70B590B004460E465F
:106B00000020089000BF08A8007801090901491C6D
:106B100008A801700078F0218843103008A9087097
:106B200000BF00BF08A8407801090901491C08A856
:106B300041704078F0218843103008A9487000BFA8
:106B400008A8807806218843811C08A881701C2130
:106B500009A803F0D0FD08A8007902218843811C10
:106B600008A80171007910218843411808A8017113
:106B700000200A900C900D9008A80E9000200F9015
:106B80003620015D68468172F8490181002001903C
:106B900000BF6846007901090901491C6846017176
:106BA0000079F021884310306946087100BF00BFAA
:106BB0006846407901090901684641714079F02130
:106BC00088436946487100BF68468079062188433A
:106BD000811C684681718079082188430146684696
:106BE00081718079102188430146684681718079DE
:106BF0004108490068468171317C0091142103A845
:106C000003F079FD02A8039001A8049001216846D1
:106C100081820021C18201210183079020892346BE
:106C20000A3303AA09A9A2DF0546002D02D028468F
:106C300010B070BD0020608500BFF9E770B590B05E
:106C400004460E460020089000BF08A800780109FD
:106C50000901491C08A801700078F0218843103010
:106C600008A9087000BF00BF08A840780109090101
:106C7000491C08A841704078F0218843103008A9C9
:106C8000487000BF08A8807806218843811C08A8A6
:106C900081701C2109A803F02EFD08A800790221AB
:106CA0008843811C08A8017100791021884341188C
:106CB00008A8017100200A900C900D9008A80E9071
:106CC00000200F903620015D68468172A749491C5B
:106CD00001810020019000BF684600790109090187
:106CE000491C684601710079F021884310306946DB
:106CF000087100BF00BF6846407901090901684674
:106D000041714079F02188436946487100BF684667
:106D1000807906218843811C684681718079082129
:106D20008843014668468171807910218843014675
:106D30006846817180794108490068468171317ED9
:106D40000091142103A803F0D6FC02A8039001A827
:106D500004900121684681820021C18201210183C2
:106D6000079020892346123303AA09A9A2DF05460A
:106D7000002D02D0284610B070BD0020608500BFF5
:106D8000F9E770B590B004460E461C2109A803F03F
:106D9000B2FC08A8007908218843411808A80171AD
:106DA000007910218843411808A8017100200A9039
:106DB0000C900D900F903620015D684681736B49F1
:106DC000C91C81810020029000BF6846007A010939
:106DD0000901491C68460172007AF021884310308D
:106DE0006946087200BF00BF6846407A0109090180
:106DF000491C68464172407AF02188431030694648
:106E0000487200BF6846807A06218843811C684624
:106E10008172807A08218843014668468172807AAF
:106E200010218843014668468172807A41084900F2
:106E300068468172317C0191142104A803F05BFC47
:106E400003A8049002A8059001216846018300214F
:106E500041831421818301A80890208923461A3395
:106E600004AA09A9A2DF0546002D02D0284610B0C9
:106E700070BD0020608500BFF9E770B590B0044692
:106E80000E461C2109A803F036FC08A80079082149
:106E90008843411808A801710079102188434118DE
:106EA00008A8017100200A900C900D900F903620D8
:106EB000015D684681732D49891C81810020029003
:106EC00000BF6846407A01090901491C68464172C1
:106ED000407AF021884310306946487200BF00BFF5
:106EE0006846407A01090901491C68464172407AA6
:106EF000F021884310306946487200BF6846807AA6
:106F000006218843811C68468172807A0821884363
:106F1000014668468172807A10218843014668469E
:106F20008172807A4108490068468172317C019102
:106F3000142104A803F0DFFB03A8049002A8059025
:106F4000012168460183002141831421818301A826
:106F5000089020892346223304AA09A9A2DF054606
:106F6000002D05D0284610B070BD0000241500008B
:106F70000020608500BFF6E770B505460C46208806
:106F8000102804D0112807D050280FD109E021463D
:106F90002846FFF78DFD0AE021462846FFF78BFDC6
:106FA00005E021462846FFF78AFD00E000BF00BF4C
:106FB00070BD70B586B004460E46306820607068BB
:106FC00060600020C043A086234B0FCB01AD0FC5EE
:106FD0002146363101A863DF0546002D02D0284640
:106FE00006B070BD3620015D684681751B498182FF
:106FF0002246083205A90120A0DF0546002D01D058
:107000002846EDE731462046FFF776FD0546002D80
:1070100001D02846E4E731462046FFF72EFF05461B
:10702000002D01D02846DBE731462046FFF706FE5B
:107030000546002D01D02846D2E731462046FFF70D
:10704000A0FE0546002D01D02846C9E70020C7E76D
:107050000246002070470000C4A70100231500006D
:10706000002314214143FC4A5354142141438918FD
:107070004B8002231421414389188B600023142183
:1070800041438918CB601421414389180B611421B5
:10709000414389188B80704710B50020EF49088064
:1070A000EF490870EC49091F087048708870002487
:1070B00003E02046FFF7D4FF641C1E2CF9D310BD5B
:1070C000FFB583B004460F4615460326E448007812
:1070D00000280BD1002D06D10698002803D10220EC
:1070E000DF49087002E00120DD490870DC480078C3
:1070F000030003F048FB07FD05314E84BAD7FD00BD
:10710000D8484069401C002808D0012212071269A3
:1071100091B2D44A506903F0ABFA02E001200007B3
:107120004069401E01210907096989B2484302905C
:107130000120000700690004820C0120000700699B
:1071400080B278430146029821DF0646002E02D124
:107150000220C3490870D0E0384620DF0646002EE2
:1071600016D1002D11D1069800280AD120780428C4
:1071700003D10720BA4908700AE00520B849087011
:1071800006E00420B649087002E00320B449087004
:10719000B3E0B4484069401C002808D0012212071F
:1071A000126991B2AF4A506903F062FA02E001201D
:1071B00000074069401E01210907096989B2484357
:1071C000012109070290096989B2794308462A46D4
:1071D000029921DF0646002E10D1069800280AD118
:1071E0002078042803D106209D49087006E0052078
:1071F0009B49087002E00420994908707DE0994895
:107200004069401C002808D001221207126991B27F
:10721000944A506903F02CFA02E00120000740690B
:10722000401E01210907096989B24843A900401895
:1072300061884018012109070290096989B27943E0
:10724000AA00891862888818069A029921DF0646E2
:10725000002E09D12078042803D106208049087027
:1072600002E005207E49087047E001200007006920
:1072700080B27843AB00C018029060888208216910
:10728000029821DF0646002E0BD1002D06D106986C
:10729000002803D107207249087002E006207049D7
:1072A00008702AE06F484069401C002808D001227D
:1072B0001207126991B26B4A506903F0D9F902E0E2
:1072C000012000074069401E01210907096989B2B0
:1072D0004843019001200007006981B2019803F042
:1072E000C7F9029020DF0646002E04D1072000E0F7
:1072F00002E05B49087000E000BF00BF304607B005
:10730000F0BDF0B585B00F275348001F0078142159
:10731000484351494418E5682078022804D00428DD
:1073200023D005286FD16FE0206903904B48008877
:1073300086026088801B0490039880190390A088BF
:1073400080194519012189020498884206D20498BF
:1073500082082846039921DF074605E0FF22013213
:107360002846039921DF074681E0A06800013E49D5
:10737000401800890490A0680001401840890390DB
:10738000A06800014018406802900298A84205D108
:107390000399049848436188884202D0A068032872
:1073A0000DD101200007006981B2284603F060F981
:1073B0002A4909884618304620DF074622E0012086
:1073C0000007006981B2284603F052F90646012001
:1073D0000007006980B27043281A800801900120DC
:1073E0000007006980B2711C484361884919401A3E
:1073F0008008009031462046009B019AFFF760FE0E
:10740000074600BF33E031E001200007006981B288
:10741000284603F02DF90646A088411901200007EF
:10742000006980B27043081A80080490A08840194F
:107430006188421801200007006980B2711C48432E
:10744000801A8008039031462046039B049AFFF778
:1074500037FE07460BE00000F42500202020002026
:1074600023200020001000104C28002000BF00BF87
:10747000002F02D10120FE498870384605B0F0BDCA
:10748000FFB581B0064617460024F94840781E280B
:1074900037D0F7480078F64949784018C4B21E2C16
:1074A00002DB20461E38C4B214206043F049091D97
:1074B0000E541420604340180761142060434118A3
:1074C000029805C8CA60886014206043E84A121D0B
:1074D0008018049941801420604380180A998180A3
:1074E0000025101F8078002805D1FFF70AFF054608
:1074F000112D00D10025DE484078401CDC49487041
:1075000000E00425284605B0F0BDF8B50446D8488B
:10751000007814214843D649091D0E5C081F0078E5
:1075200014214843D249091D401880680001D149FF
:107530000D58CF48007814214843CD49091D401803
:107540004088091F0090097814225143C84A121D2F
:1075500089180B69111F097814225143C44A121D5E
:1075600089180846083022463146A847F8BD10B5AC
:107570000024BF484078002809DDFFF7C2FE04461A
:10758000002C04D0112C02D02046FFF7BEFF20466D
:1075900010BDFEB505460026B548807801287DD18E
:1075A0000020B3498870B4480078082811D1022D12
:1075B00003D10020B049087002E00020AF490870F4
:1075C000FFF7D5FF0646002E02D03046FFF79DFF9D
:1075D000FEBD022D02D0032D79D174E0A4480078BD
:1075E00014214843A249091D4418A5480088401C9D
:1075F000A34908802078022807D108460088800225
:107600006188884201DB012000E0002007462078E5
:10761000052805D198480078072801D1012000E00D
:10762000002002902078042805D19348007807288C
:1076300001D1012000E000200190207804280BD126
:107640008F48008880026188884205DB8A4800787C
:10765000002801D1012000E00020009002980028BD
:1076600007D10198002804D10098002801D1002FEB
:107670001FD00020804908703046FFF746FF7C4944
:107680000878FFF7EDFC00207D49088078484078B5
:10769000401E774948700846007800E01AE0401C18
:1076A0000870084600781E2803DB084600781E385C
:1076B0000870FFF75CFF0646002E02D03046FFF749
:1076C00024FF05E003E00D20FFF71FFF00E000BFEF
:1076D00000BF00BF00BF7BE770B5FFF7DDFC0020F7
:1076E0006849088068484069401C002808D0012289
:1076F0001207126991B2644A506902F0B9FF02E0C0
:10770000012000074069C01E01210907096989B2EB
:1077100048435E49086000205949088000BF0DE0D9
:1077200000210201534B99500201D218118102012C
:10773000D21891810201D2185181401C0228EFD346
:1077400008204D49087050484069401C002808D066
:1077500001221207126991B24B4A506902F088FF68
:1077600002E0012000074069401E01210907096964
:1077700089B24843064601200007006981B23046BD
:1077800002F076FF054620DF0446002C04D10120DC
:107790003749887039490870204670BDF8B50446ED
:1077A0000D4600BF35480078002801D10820F8BDFB
:1077B00000BF002C01D10E20F9E7002D01D10E20D1
:1077C000F5E72068002801D10E20F0E7A08801210C
:1077D0000907096989B2884202DCA088102801DA09
:1077E0000720E4E7E08800281ED027484069401CB5
:1077F000002808D001221207126991B2224A50696A
:1078000002F036FF02E0012000074069401E01211E
:107810000907096989B24843E188A28851431B4A94
:1078200012688918884201D20720C0E720798007B2
:10783000800F002801D00720B9E7124800880228ED
:1078400001D10420B3E70F48008828600F48006882
:1078500068600C4909880901064A89186868486007
:1078600008490988090120685050A08805490FE09F
:10787000F02500204C28002023200020222000207A
:107880002020002018200020001000101C200020C4
:107890000988090189180881E088FE4909880901D9
:1078A000891848810027A688E1884E4300BF781CCC
:1078B00087B201200007006980B2B04205D20120E2
:1078C0000007006980B2361A00E000260120000798
:1078D000006980B2F04909684018EF49086001204A
:1078E0000007006980B2B042E1D9EA48008800018F
:1078F000EA4940188781E7480088401CE54908802C
:10790000002054E73CB5034600BFE5480078002856
:1079100001D108203CBD00BF002B01D10E20F9E7AA
:10792000002A01D10E20F5E71868022805D2186850
:107930000001DA4C2058002801D10720EAE75C68F2
:10794000186801940090019C18680001D34D4019FB
:107950000089484320180190009800012C46001926
:107960004089009C2401641924896043009C2401FF
:10797000641964680019019CA04201D80720C9E776
:10798000019C0098546010600020C3E7F8B50446DD
:107990000E4615461F4600BFC1480078002801D199
:1079A0000820F8BD00BF002E01D10E20F9E7002C01
:1079B00001D10E20F5E72068022805D220680001D9
:1079C000B6490858002801D10720EAE720680001DD
:1079D000B2494018408921680901B04A89180989CB
:1079E000484321680901891849684018616888423C
:1079F00001D80720D5E7002D06D020680001A7494F
:107A000040180089A84201DA0720CAE7E81921686E
:107A10000901A24A89180989884201DD0720C0E7C7
:107A2000304600F05CF9002804D0384600F057F9E1
:107A3000002801D11020B4E7606800F050F9002858
:107A400001D11020ADE72B46324621460220009797
:107A5000FFF716FDA5E7F8B504460E4615461F4686
:107A600000BF8F480078002801D10820F8BD00BF72
:107A7000002E01D10E20F9E7002C01D10E20F5E7F0
:107A80002068022805D2206800018449085800288F
:107A900001D10720EAE720680001804940184089A9
:107AA000216809017D4A891809894843216809012B
:107AB0008918496840186168884201D80720D5E7CD
:107AC000002D06D020680001744940180089A842A2
:107AD00001DA0720CAE7E819216809016F4A891805
:107AE0000989884201DD0720C0E7304600F0F7F839
:107AF000002804D0384600F0F2F8002801D1102008
:107B0000B4E7606800F0EBF8002801D11020ADE781
:107B10002B463246214605200097FFF7B1FCA5E72A
:107B2000FFB581B00C4615461E4600BF5C48007884
:107B3000002802D1082005B0F0BD00BF002C01D103
:107B40000E20F8E70198002801D10E20F3E7206805
:107B5000022805D22068000150490858002801D1A8
:107B60000720E8E7206800014C4940184089216857
:107B700009014A4A89180989484321680901891875
:107B8000496840186168884201D80720D3E7002D72
:107B900006D020680001414940180089A84201DA56
:107BA0000720C8E7A819216809013C4A89180989F2
:107BB000884201DD0720BEE7019800F090F8002818
:107BC00004D0304600F08BF8002801D11020B2E735
:107BD000606800F084F8002801D11020ABE76068ED
:107BE00081192A46019802F06DFD00952068000178
:107BF0002A490F58002203212046019BB847002044
:107C000099E7F8B504460D4600BF254800780028DE
:107C100001D10820F8BD00BF002C01D10E20F9E7EA
:107C20002068022805D2206800011C490858002855
:107C300001D10720EEE7206800011849401840896B
:107C400021680901154A89180989484321680901F1
:107C50008918496840186168884201D80720D9E727
:107C6000606800F03CF8002801D11020D2E72368BA
:107C70001B010A4FDB1962685B68D01A2268120187
:107C80003B46D218118902F0F3FC00290AD00720E4
:107C9000C0E70000182000201C2000204C280020F5
:107CA0002220002000202B4602462146009004207E
:107CB000FFF7E6FB06463046ACE7014600BF0C483E
:107CC0000078002801D10820704700BF002901D1A9
:107CD0000E20F9E70748407808600020F4E70146E5
:107CE0008807800F002801D1012070470020FCE7A1
:107CF00022200020F0250020F7B584B004460F466E
:107D000006980678B01C1F2803DC6078801C1F28AA
:107D100002DD0C2007B0F0BD1F20801B801E85B245
:107D20000295B11C781802A97DDF03900398002802
:107D300001D00398EEE72078022808D16846008930
:107D4000A84204DC09200190684605890BE0082060
:107D500001906078002804D06078A84201DC657842
:107D600001E068460589681CC2B23046711CCEB27B
:107D70003A543046721CD6B20199395406980178AB
:107D8000A81C0818C1B2069801700020C2E7F8B517
:107D900005460C462078001D1F2801DD0C20F8BD8B
:107DA000684679DF0646002E01D03046F7E703210A
:107DB0002278501C2070A95419212278501C207060
:107DC000A954207841196846008800F08AFA217881
:107DD000401820700020E2E7F8B505460F46164629
:107DE0001C466868002801D10720F8BD2078801C57
:107DF000298840181F2801DD0C20F6E72878401C50
:107E0000C1B22278501C2070B1542178481C2070D7
:107E100077542A8823789819696802F053FC2078EF
:107E20002978401820700020DFE730B5034610782D
:107E3000C01C1F2801DD0C2030BD02241578681CF1
:107E400010704C550A241578681C10704C55157824
:107E5000681C10704B550020EEE7FFB587B0064652
:107E60001D46109C0020069020780590002747E0D2
:107E7000B900706841180A886846028149884181C2
:107E8000002203A902A865DF04900498002802D00C
:107E900004980BB0F0BD6846017B099881422ED151
:107EA0000698002801D0002000E0022001902078F0
:107EB0006946097B4118019808181F2801DD0C202C
:107EC000E7E70698002809D12078401C2070227826
:107ED000511C08982170A85401200690207842195E
:107EE00003A902A865DF04900498002801D0049833
:107EF000CFE720786946097B4018207000BF7F1CBF
:107F00003088B842B4DC0698002806D0217805985D
:107F1000401C081AC1B2059829540020B9E7FFB5E2
:107F200081B0074615460A9E009602223846049BF9
:107F30000299FFF792FF0446002C02D0204605B0BC
:107F4000F0BD0096102229463846049BFFF785FFB6
:107F50000446002C01D02046F1E70020EFE701465F
:107F60000888062808DB08881922D201904205DD1E
:107F70000888E04A904201D00720704748880628C8
:107F800008DB48881922D201904205DD4888D94A89
:107F9000904201D00720F0E70888D64A904208D0E6
:107FA0004888904205D008884A88904201DD072021
:107FB000E3E70020E1E7F8B506460D4614462078D1
:107FC000801D1F2801D90C20F8BD3046FFF7C7FFE0
:107FD0000746002F01D03846F6E705212278501CCD
:107FE0002070A95412212278501C2070A9542278A4
:107FF0005119308800F075F92178401820702278E6
:108000005119708800F06DF9217840182070002017
:10801000DAE7F8B505460E4614462879801CC7B243
:108020002078801CC0191F2801DD0C20F8BD781CA9
:10803000C1B22278501C2070B154FF212278501C0C
:108040002070B15422789119288800F04AF92178DB
:1080500040182070A88800280EDDA868002801D1EB
:108060000720E3E7AA8823789819A96802F02AFB79
:1080700020782979401820700020D7E7FEB5074600
:108080000E461446386B002801D10720FEBD0020A3
:10809000019032E0396B0C22019850430D18287979
:1080A000801CC0B200900098401CC1B22278501CC5
:1080B0002070B15416212278501C2070B1542278BF
:1080C0009119288800F00DF9217840182070A888AF
:1080D00000280EDDA868002801D10720D6E7AA886D
:1080E00023789819A96802F0EDFA207829794018C8
:1080F00020700198401CC0B201903420C15D0198ED
:108100008142C7DC0020C1E7F8B504460F46164699
:108110000025002030702078002809D032463946EA
:108120002046FFF7E9FD0546002D01D02846F8BDA1
:10813000A078002808D031463846FFF728FE0546CB
:10814000002D01D02846F2E7A08800280ADD33463A
:108150003A460121201DFFF73FFE0546002D01D0C4
:108160002846E4E7E06800280BD00020E1680856C4
:1081700032463946FFF759FE0546002D01D0284604
:10818000D5E7208A00280CDD3B4606220221204646
:1081900010300096FFF7C3FE0546002D01D028469B
:1081A000C5E7208B00280CDD3B4607220321204633
:1081B00018300096FFF7B3FE0546002D01D0284683
:1081C000B5E7208C00280CDD3B4615221421204603
:1081D00020300096FFF7A3FE0546002D01D028466B
:1081E000A5E7A06A002809D032463946A06AFFF701
:1081F000E2FE0546002D01D0284698E7E06A0028F7
:1082000009D032463946E06AFFF703FF0546002DE4
:1082100001D028468BE73420005D002809DD324676
:1082200039462046FFF72AFF0546002D01D0284693
:108230007DE728467BE701468888002808D08868C3
:10824000002805D08868007804221040002801D159
:10825000072070470020FCE701468888002801DDE0
:10826000072070470020FCE7F3B593B00D460021CE
:10827000129111911398002814D01398FFF7DBFF87
:108280000446002C02D0204615B0F0BD12AA09A960
:108290001398FFF739FF0446002C01D02046F3E77E
:1082A00009AE00E00026002D13D02846FFF7D4FFCA
:1082B0000446002C01D02046E6E711AA01A9284671
:1082C000FFF722FF0446002C01D02046DCE701AF77
:1082D00000E0002710A803793A46017A304672DFA1
:1082E000D2E702460A70FF200002104000124870D8
:1082F00002207047FFFF000030B50346481CC00451
:10830000040C10468507AD0F002D01D1012500E0BA
:108310000025002D01D1072030BD7A4802601019D8
:10832000794D28600020794D2870794D2870794862
:108330000380794801800020EEE7F7B584B00C4651
:108340007448008884426BDC744D0020039000F078
:10835000A4F802900298012814D003A82EDF074643
:10836000022F01D172B60CE000BF0197019F002FD0
:1083700006D000BF6AA259210198FDF74BFF00BF4C
:1083800000BF00BF6148007800F0B1F8604909788B
:10839000884206D05D480578007800F0A8F85B496F
:1083A00008700298012814D062B66846007B2FDF5F
:1083B0000746022F0CD000BF0197019F002F06D067
:1083C00000BF57A261210198FDF724FF00BF00BF45
:1083D00000BF5248854221D0E9004A4A06981268F7
:1083E00050500498002811D0002C0FDD494909880D
:1083F0006943454A126888182246049902F062F9D6
:10840000E800404909684018848005E00020E90040
:108410003C4A126889188880002600E0042600E0A3
:108420000926304607B0F0BDF8B505460E4617469A
:1084300005200090354800783549097888421BD0DE
:1084400033480478007800F052F831490870314818
:10845000008860432C49096840182860E0002949D9
:108460000968401880883080E0002649096808586B
:1084700038600020009000BF0098F8BD0EB504E001
:1084800068468188009A029890476A4601A902A826
:10849000FFF7CAFF0028F3D00EBD10B52D48406885
:1084A000C105C90D002920D00A46103A50B2002853
:1084B0000DDA284B1C330407240F083CA408A40041
:1084C0001B598407E40EE3401B069B0F0BE0224B75
:1084D000032424021B198408A4001B598407E40EFA
:1084E000E3401B069B0FD8B210BD0420FCE70146F9
:1084F00009480088814201DA481C00E00020C0B22F
:108500007047000024200020282000202D2000207B
:108510002C2000202E20002030200020FFFF000013
:108520002E2E5C2E2E5C2E2E5C2E2E5C2E2E5C5360
:108530006F757263655C6170705F636F6D6D6F6E98
:108540005C6170705F7363686564756C65722E63DF
:108550000000000000ED00E000E100E010B50028A0
:1085600019DAFB4A03071B0F083B9B089B00D258F4
:108570008307DC0EFF23A3409A438B071B0E84075F
:10858000E40EA3401A43F24B0407240F083CA4084E
:10859000A4001A5118E0EF4A03231B02D2188308E3
:1085A0009B00D2588307DC0EFF23A3409A438B071E
:1085B0001B0E8407E40EA3401A43E64B0324240257
:1085C0001B198408A4001A5110BD10B50446E248D6
:1085D000846003211120FFF7C1FF10BD10B50120F9
:1085E0000004DE494860DD4940394860112000F050
:1085F000F5FC112000F0E4FC0120D94908602F208F
:10860000FDF768FD0120D749087010BD10B5112095
:1086100001218140CF4A8032116000BF0120000457
:10862000CE498860CD49403988600120CC494860F6
:108630002F20FDF74FFD0120C94988600020CA495D
:1086400008602F20FDF746FD0020C649087010BDC8
:10865000F0B5024624205043C44B1B68C118C448DF
:108660000068401C002802D1C148026059E0C0489F
:108670004B68006824246043BC4C2468001940689F
:10868000834217D8BA48006824235843B74B1B6865
:10869000C01840684B68C31AB5480068242460437A
:1086A000B24C246800194360B14800680862B048C1
:1086B000026036E04B68AE4D2C6828680DE024253A
:1086C0004543AA4E3668AD196D685B1B04462425E8
:1086D0004543A64E3668AD19286A451C002D07D0C3
:1086E00024254543A14E3668AD196D689D42E6D3F9
:1086F000451C002D0CD0242545439C4E3668AD19F1
:108700006D68EE1A24254543984F3F68ED196E6059
:108710004B60086224256543944E3668AD192A6281
:1087200000BFF0BDF8B50646914805682C4609E043
:10873000B44200D109E02546242060438B490968F2
:108740004018046A601C0028F2D100BF601C002899
:1087500000D1F8BDA54210D18548006824214843C6
:10876000824909684018006A814908600846006823
:10877000401C002801D1FFF749FF242060437B49BA
:108780000968401847682420604378490968401800
:10879000016A24206843754A126880180162242007
:1087A0006843724909684018046A601C00280CD0AC
:1087B000242060436D49096840184068C11924208D
:1087C00060436A4A12688018416000BFC1E710B573
:1087D000112000F0FCFB10BD10B5142000F0F7FBD9
:1087E00010BD70B5044663480068002813D0614A84
:1087F000E169A06912689047054600BF2E46002E29
:1088000007D000BF5CA2FF2166313046FDF702FDB4
:1088100000BF00BF02E0A169E069884770BDF8B5FC
:1088200053480068401C00283AD0002700F008FC9C
:1088300004464D480168204600F005FC06464C48B9
:10884000056811E0242068434849096844186068B5
:10885000B04200D90BE06068361A6068C719256A13
:108860002046FFF7BEFF00BF681C0028EAD100BF0A
:108870004D4800784D490978884209D14B48007825
:10888000401CC0B249490870022801D1002008707C
:1088900046480078800046490F50FFF79DFF00BF13
:1088A000F8BD014640480078404A127890421DD0F9
:1088B0003D480078401C3C4A107010460078022861
:1088C00001D100201070384800788000384A1058D4
:1088D0000860254A086812688018234A106010460C
:1088E00000680002000A1060012070470020086044
:1088F00000BFFAE7FEB51E48006801902D480078D9
:10890000009076E00098C0002B490968441825784B
:108910006BE01820684361680F18681CC5B2A07826
:10892000A84200D100253878022802D0032859D166
:1089300044E02421786848430C4909684618307D92
:10894000002804D07868FFF7EDFE002030754AE07B
:108950001CED00E000E100E0001501404013014083
:10896000001001405C20002048200020382000201A
:1089700044200020582000202E2E5C2E2E5C2E2E0F
:108980005C2E2E5C2E2E5C536F757263655C61707D
:10899000705F636F6D6D6F6E5C6170705F74696D39
:1089A00065722E6300000000542000205520002036
:1089B0004C2000203C200020402000200CE0F84902
:1089C000096824225143F74A12688818002101756A
:1089D000F34A016A116000BFF1480068401C00289A
:1089E000EDD100E000BF00BF00BF6078A84290D189
:1089F00000BF0098411EC9B20091002882D1E8480A
:108A000001680198814201D00120FEBD0020FCE7F1
:108A1000F0B50346002426E0E14E366824277E4365
:108A2000E04F3F68F01946689E4203D94668F61A3F
:108A300046601DE046689B1B466834190026466068
:108A40000675D74E3568D64F066A3E600669002E19
:108A500008D00E193602360A86600669C6601668A6
:108A60000662156000BFCE480068401C0028D3D1C4
:108A700000BFF0BDFEB50746C94800680290CA486D
:108A8000007801906BE00198C000C849096845185A
:108A90005DE0781C002807D03E4624207043C14981
:108AA00009684418276A23E02978182359436A681B
:108AB00050182978491C29702978AA78914201D147
:108AC00000212970466824217143B64A12688C1827
:108AD0000178012902D1217D002900D037E0816889
:108AE000A160C168E160016921614169E16100BF84
:108AF000AF49A0680968401A0002000AAD498842DF
:108B000008D2AB49A068096800F09DFAE1684018F6
:108B1000606011E0A648A168006800F094FA009037
:108B2000E1680098814204D9E1680098081A606001
:108B300001E00020606000BF0020A060E060012034
:108B40002075801E20623046FFF782FD00BF781C32
:108B500000289ED12878697888429AD100BF019870
:108B6000411EC9B2019100288DD18D48016802983B
:108B7000814201D00120FEBD0020FCE7FEB58848FF
:108B80000068401C002834D08548006824214843F0
:108B9000844909684018456800F052FA01908448F9
:108BA00004682146019800F04EFAC61C82480078FD
:108BB000002801D1FFF712FDAE4201D2284600E0A5
:108BC000304604192402240A20467C49086000BF6C
:108BD00000F036FA00900199009800F034FAC71CB2
:108BE0002046019900F02FFA874201D9FFF7EFFDE7
:108BF00001E0FFF70BFDFEBDFEB50020C043019074
:108C00006B480468664807686846FFF74AFE0546F1
:108C1000FFF770FE0646002D05D001AA21460098F8
:108C2000FFF7F6FE01260198FFF724FF002800D089
:108C30000126002E02D03846FFF7A0FFFEBD41708E
:108C4000704770B502460B465078411C90788842B8
:108C500000D100211078884201D1002070BD196038
:108C600050781826704355682C182046F6E7FFB553
:108C700081B005460E461746E9004C4A126888182E
:108C80006946FFF7DEFF0446002C02D1042005B040
:108C9000F0BD01202070666000F0D2F9A060E760AE
:108CA000049820610A986061E900404A12688818B7
:108CB0000099FFF7C4FFFFF78FFD0020E7E7F8B545
:108CC00004460E46E100394A126888186946FFF7E3
:108CD000B8FF0546002D01D10420F8BD0220287000
:108CE0006E60E100314A126888180099FFF7A7FF0B
:108CF000FFF772FD0020F0E738B50446E1002B4A8B
:108D0000126888186946FFF79CFF0546002D01D1BF
:108D1000042038BD03202870001F6860E100234A4A
:108D2000126888180099FFF78AFFFFF755FD0020A9
:108D3000EFE710B50020224908600021204841607B
:108D40008160C16000201E49403908604860FFF71B
:108D500066FD10BD10B5FFF74FFF10BDFFB581B028
:108D60000E4617461C4620468107890F002901D16F
:108D7000012100E00021002902D1072005B0F0BD4B
:108D8000002C01D10720F9E7FFF740FC0D490A98B4
:108D900008600D48067003480460002523E00000C9
:108DA00044200020382000203C20002040200020CB
:108DB00048200020FFFF7F005C200020401501407C
:108DC00040110140582000203420002000212420A0
:108DD00068439F4A12681154242068439C4A1268D1
:108DE000801801756D1CB542F0DB24207043041916
:108DF00003209849087098480460183400250CE056
:108E0000E900954A12688818002101704170877046
:108E10004460182179430C196D1C032DF0DB0020F0
:108E2000C0438E49086000208D4908708D49087044
:108E3000142000F0D3F803211420FFF78FFB142037
:108E400000F0BEF80198FFF7C0FB00F0F9F8864982
:108E50000860002092E770B503460C467C48006825
:108E6000002801D1082070BD002A01D10720FAE7AF
:108E7000002B01D10720F6E700211CE02420484305
:108E8000734D2D68285C002814D101252420484307
:108E90006F4E36683554242048436D4D2D68401977
:108EA0004470242048436A4D2D684019826119603E
:108EB0000020D8E7491C6D4800788142DEDB0420A1
:108EC000D1E710B500F092F8012802D0032804D1B0
:108ED00001E0002403E0012401E0022400BF00BF00
:108EE000204610BDFEB504460D461646584800689B
:108EF000002801D10820FEBD5C480078844201D2E0
:108F0000052D01D20720F6E7242060435049096867
:108F1000085C012801D00820EDE7242060434C497B
:108F2000096840184078012801D1284600E0002057
:108F30000746FFF7C6FF3B462A46214600960190AA
:108F4000FFF795FED7E770B5044641480068002852
:108F500001D1082070BD45480078844201D3072024
:108F6000F8E7242060433A490968085C012801D0E9
:108F70000820EFE7FFF7A5FF05462146FFF79FFE14
:108F8000E8E710B532480068002801D1082010BD7C
:108F9000FFF797FF0446FFF7AFFEF8E710B504466A
:108FA00000F04EF82060002010BD70B505460E465A
:108FB00014463146284600F046F82060002070BD77
:108FC000C206D20E01219140294A11607047C206A3
:108FD000D20E01219140274A11607047C206D20E7D
:108FE00001219140234A80321160704710B5224818
:108FF0004068C105C90D002920D00A46103A50B278
:1090000000280DDA1C4B1C330407240F083CA4086D
:10901000A4001B598407E40EE3401B069B0F0BE0E2
:10902000134B032424021B198408A4001B59840732
:10903000E40EE3401B069B0FD8B210BD0420FCE7F2
:109040000E48406870470246501A0002000A7047F6
:10905000382000203C200020402000204420002018
:1090600054200020552000204820002034200020DB
:1090700000E100E000E200E000ED00E0001501404A
:1090800001464888B74A1288904206DB4888B54AAC
:109090005288904201DC012070470020FCE738B57F
:1090A0000546B1480088B14988423BD0B0480078B5
:1090B000401CAF490870AF48007B097888420FDB3D
:1090C000A849A948008875DF0446002C07D0A948A4
:1090D0008069002803D0A74881692046884721E09D
:1090E0000020A3490870A348007C00280FD03B2132
:1090F0009D48008876DF0446002C07D09D48806993
:10910000002803D09B4881692046884700BF9948C2
:109110004069002806D000200090964841696846C2
:10912000884700BF38BD70B505461C2229469148C6
:1091300001F0C8FA002090490870286800280BD078
:1091400008228848296801F0BDFA86487ADF04467B
:10915000002C08D0204670BD82487BDF0446002CDE
:1091600001D02046F7E70020C0437F490880002057
:109170007F490870814A00218148FFF76CFEEAE7C9
:1091800010B57F480068FFF7DEFE10BD38B57D489A
:10919000FFF776FF002829D17748007800280AD009
:1091A00074484069002820D000200090714841692F
:1091B0006846884719E06E480078002802D16D485B
:1091C000456801E06B488568002229466C480068C4
:1091D000FFF788FE0446002C07D066488069002807
:1091E00003D064488169204688470AE061484069A5
:1091F000002806D0012000905E48416968468847F3
:1092000000BF00205C49087038BD10B50446A08836
:1092100055490880082221460E315A4801F052FA79
:109220000020534908705348C089002801D1FFF736
:10923000ADFF10BD70B505460020C0434A49088007
:1092400000204B4908704E480068FFF77CFE04463A
:10925000002C07D047488069002803D04548816921
:109260002046884770BD70B50546AC1D2088414931
:10927000C989884220D1208B02281DD100BF00BFA0
:10928000A17EE27E120211430846C107C90F0029E0
:1092900002D0FFF77BFF0FE039480068FFF753FE6D
:1092A0000646002E07D033488069002803D0314895
:1092B00081693046884700BF70BD10B5044608225A
:1092C000A11D304801F0FEF9FFF760FF10BD10B599
:1092D00004462088102806D0112808D012280ED065
:1092E000502810D107E02046FFF78FFF0CE0204602
:1092F000FFF7A0FF08E02046FFF7B5FF04E0204697
:10930000FFF7DBFF00E000BF00BF10BD38B504462B
:1093100008222146134801F0D5F912487ADF0546A4
:10932000002D1CD11748FFF7ABFE00280BD1012000
:10933000114908700B490C48008875DF054601206B
:109340000B4908700BE00B484069002806D001204B
:109350000090084841696846884700BF00252846B4
:1093600038BD0000602000206A200020FFFF0000C0
:10937000682000206C280020782000209F900100A9
:10938000742000206C20002070B506460C4615465F
:1093900029462046FCF748FF70BDF8B55A480078CA
:1093A000002800D1F8BD59480068002801D10120EB
:1093B00000E00020054656480068002801D1012041
:1093C00000E00020064600BF002D14D1684651DFA2
:1093D0000446052C01D101250CE0002C06D000BF6D
:1093E0004CA269212046FCF715FF03E0474900988D
:1093F0000968884700BF002E1AD1544800880090A1
:1094000069465348006861DF0446052C01D10126F6
:109410000DE0002C06D000BF3EA280212046FCF7C4
:10942000F9FE04E04A48006839490968884700BFE6
:10943000002D02D0002E00D000E0C5E700BF00BF25
:10944000B0E7FFB581B00C4616461F46002C02D18E
:10945000072005B0F0BD20468107890F002901D102
:10946000012100E00021002901D10720F1E738485F
:10947000046036480680374807603749019810DF96
:109480000546002D01D02846E3E701201E4908705B
:10949000162026DFDDE710B511DF0446002C01D0D1
:1094A000012000E0002018490870204610BD014648
:1094B000002901D10E207047154801600020FAE70D
:1094C0000146002901D10E2070471048016000209C
:1094D000FAE770B51F480068002811D01D480068E1
:1094E0008047044600BF2546002D07D000BF09A2D3
:1094F000FF2133312846FCF78DFE00BF00BF01E09D
:10950000FFF74BFF70BD0000862000208C2000205C
:10951000882000202E2E5C2E2E5C2E2E5C2E2E5CA3
:109520002E2E5C536F757263655C73645F636F6D41
:109530006D6F6E5C736F66746465766963655F6892
:10954000616E646C65722E63000000008420002050
:10955000802000207C20002089930100F8B504467B
:109560000D4690480068002813D0EAB221788D4B50
:1095700060681B689847064600BF3746002F06D034
:1095800000BF89A228213846FCF744FE00BF00BF77
:109590000CE0012D04D1207801216268904705E09C
:1095A000002D03D12078002162689047F8BDF8B5FE
:1095B000074669468848007800F0EFFA0646002E14
:1095C00000D0F8BD002534E0E8008449096844185B
:1095D00083480068227801219140084000280FD07C
:1095E000606800280CD06078012804D10021204652
:1095F000FFF7B4FF1BE001212046FFF7AFFF16E0A5
:1096000077484068227801219140084000280ED018
:10961000606800280BD06078012804D10121204621
:10962000FFF79CFF03E000212046FFF797FF681C2F
:10963000C5B26C4800788542C6DB00BFC1E770B593
:1096400004460D4668480068FFF77DFC0646002E7C
:1096500000D070BD62484460056020462843024641
:109660006248016860480068FFF73CFC064600BF9E
:10967000EFE7FFB583B006460C461746052F02D22A
:10968000072007B0F0BD554806605648047057489B
:109690000760444906980860002515E0E100881934
:1096A00002780092817801910199890005221207C0
:1096B00007231B02D318009A9200995000BF02782A
:1096C000012191400D4300BF2046611ECCB200280D
:1096D000E4D1474B2A4629463F4800F087F90290DB
:1096E0000298002801D00298CBE7424A00213E4868
:1096F000FFF7B1FBC5E710B538480068002801D175
:10970000082010BD3448007800F0B5F9F9E710B52D
:1097100032480068002801D1082010BD2E4800788A
:1097200000F01AFA0446002C01D02046F5E72E4836
:109730000068FFF708FCF0E7F8B505460C46E800BE
:1097400026490968471825480068002801D10820E3
:10975000F8BD69462048007800F01FFA0646002E42
:1097600001D03046F4E7787800280BD10098E84023
:10977000C007C00F002802D00020207010E0012098
:1097800020700DE0787801280AD10098E840C007E1
:10979000C00F002802D00120207001E000202070BE
:1097A0000020D5E79C2000202E2E5C2E2E5C2E2E35
:1097B0005C2E2E5C2E2E5C536F757263655C61703F
:1097C000705F636F6D6D6F6E5C6170705F627574FA
:1097D000746F6E2E63000000A020002090200020F7
:1097E000A820002094200020A42000209820002001
:1097F0003F960100AF950100F0B502460C460020EF
:1098000037E001238340194623460B40002B2FD01D
:10981000D5680D40002D05D101235B04D5680D43AB
:10982000D56004E003231B04D5688D43D56005256E
:109830002D0707263602AD198600AD5903263604DA
:10984000B5430526360707273F02F6198700F5516D
:1098500005252D0707263602AD198600AD591D4393
:109860000526360707273F02F6198700F55100BF86
:10987000401C2028C5D3F0BDF0B585B0EF48056980
:109880000020EF49C86300263FE014207043ED49F3
:10989000096844180120B040EB49096808400028D5
:1098A00031D0E068C0436840216808400746394627
:1098B0002046FFF7A1FFE148006968400390039844
:1098C00000280ED003980543E068C0436840216833
:1098D0000840009020460099FFF78EFF009807434C
:1098E00000BFA068A8433840019060682840384015
:1098F0000290019902980843002803D02269019937
:109900000298904700BF701CC6B2D04800788642CB
:10991000BBDB05B0F0BD10B50146002029E01422E4
:109920004A43C84B1B689A58012383401A40002AB7
:109930001ED00522120707231B02D2188300D2581B
:1099400003231B049A4305231B07072424021B1926
:1099500084001A510522120707231B02D218830024
:10996000D25805231B07072424021B1984001A510F
:10997000401C2028D3D310BD70B505460C46002CE2
:1099800001D1072070BD20468107890F002901D130
:10999000012100E00021002901D10720F2E7A948B8
:1099A0000460AB4805700020A8490870A64908600B
:1099B000A7480078142250430146A248006800F0EE
:1099C0009AFE0020C043A3498860062001218140FF
:1099D000A14A116000BF012100F0F9F80620012121
:1099E00081409E4A116000BF0020CBE7F8B50446D5
:1099F0000D4616461F4693480068002801D10820EE
:109A0000F8BD002F01D10720FAE79048007890496F
:109A10000978884201DB0420F2E7284630438B496D
:109A2000097814225143874A1268505087480078B9
:109A300014214843834909684018456083480078E9
:109A4000142148437F490968401886607F480078A0
:109A5000142148437B490968401807617B48007816
:109A600020707A480078401C784908702078FFF709
:109A700052FF0020C4E7F0B5024672480068002893
:109A800001D10820F0BD71480078824201DB072037
:109A9000F8E700206A4BD863684804696A480068A0
:109AA000002802D158066B4B586001209040664B4D
:109AB0001B681843644B1860002314205043614D09
:109AC0002D684019C360002142E001238B401846F5
:109AD000142353435B4D2D68EB580340002B36D0C5
:109AE00025460540002D02D003231B040EE0012370
:109AF0005B0414255543534E3668AD19ED68054394
:109B0000142656434F4F3F68F619F56005252D077B
:109B100007263602AD198E00AD5903263604B5432B
:109B20000526360707273F02F6198F00F551052550
:109B30002D0707263602AD198E00AD591D430526A7
:109B4000360707273F02F6198F00F55100BF491C61
:109B50002029BAD3002095E710B50446394800689B
:109B6000002801D1082010BD38480078844201DB6C
:109B70000720F8E72046FFF7CEFE0120A04032493B
:109B800009688143304801600068002803D1012042
:109B9000C007304988600020E5E710B50246294833
:109BA0000068002801D1082010BD284800788242B2
:109BB00001DB0720F8E714205043224C24680319E6
:109BC0001E4800691C68204008600020ECE710B5C2
:109BD000002819DA224A03071B0F083B9B089B0049
:109BE000D2588307DC0EFF23A3409A438B071B0E3A
:109BF0008407E40EA3401A43194B0407240F083CC2
:109C0000A408A4001A5118E0144A03231B02D21816
:109C100083089B00D2588307DC0EFF23A3409A439E
:109C20008B071B0E8407E40EA3401A430B4B03243F
:109C300024021B198408A4001A5110BD000500500D
:109C400040610040B8200020B0200020B520002056
:109C5000B42000200063004080E200E000E100E06A
:109C60001CED00E004460D4616467F2231460948A9
:109C700000F04CFD002107486030C17706490D8097
:109C800006480460084600880448006872B600BFB1
:109C9000FEE7000088280020BC200020C020002013
:109CA00013B568464088012803D1162000F0BDFB9B
:109CB00002E0162000F0B4FB1CBD70B50546002D77
:109CC00003D1012000F033FB70BD29010022F748C9
:109CD0000068FFF707F9044600BF2646002E06D0AD
:109CE00000BFF3A275213046FCF794FA00BF00BF15
:109CF00000BFE9E7704770B504242146641CF648AC
:109D0000455C2146641C465C30024019F3490880DA
:109D10002146641CF048405CF14908702146641CEF
:109D2000ED48455C2146641C465C2146641C405C51
:109D3000EC49086030024019098809044018E949D3
:109D4000086008460068FA214843E6490860214651
:109D5000641CE148455C2146641C465C30024019A5
:109D6000E14908602146641CDB48405CDF4908701B
:109D70002146641CD848405CDD4908702146641CBB
:109D8000D548455C2146641C465C2146641C405C09
:109D9000D849086030024019098809044018D5499B
:109DA00008602046611C8CB2CB490D5C2046611CCA
:109DB0008CB2C9490E5C2046611C8CB2C649085C55
:109DC000CD49086030024019098809044018CA4981
:109DD0000860C148005DC949088008460088C84934
:109DE0000968401AC7490860FFF784FF70BDBA4888
:109DF0004078C549087008460078142808DD00201E
:109E0000C2490870C04800781438BF49087002E0A1
:109E10000120BE490870BC4800780A2808DD0120EE
:109E2000BB490870B84800780A38B749087002E0A2
:109E30000020B7490870A8488078B6490870A6483D
:109E4000C078B5490870704730B50146002400233A
:109E50000878F12801D0002030BD4A78104624252A
:109E60006843021D501C085CF32801D00020F3E772
:109E7000002304E0C85C0019C4B2581C83B29342AA
:109E8000F8DB885CA04201D00020E5E70120E3E791
:109E900013B568460078032804D068460078042883
:109EA00000D01CBD8C48FFF7CFFF002812D0FFF771
:109EB0009EFF9A48007800280AD09448007800282D
:109EC00006D10220964908700020FFF7F6FEE8E769
:109ED000FFF711FF00209149087003209049087096
:109EE000844909687D22D20051430846FFF7E5FE08
:109EF00000BFD6E78B480078012812D1804800784F
:109F0000894908707F480078884908708848006847
:109F10008849086004207A4908600020794908606F
:109F200012E08048007802280ED000207D49087099
:109F30007D480078724908607C4800787149086063
:109F40007C4800687A490860704710B56548006829
:109F50007949086073480078002802D0FFF7CAFFEB
:109F600010BD76480068401C74490860654909685E
:109F7000634A126888180A2100F090FB6C4909684E
:109F800048436F4908605C480068096840183230EF
:109F90006C490860084600686E3067490968884265
:109FA00006D96420684908600A2068490860D7E734
:109FB0006148006863490968401A62490860086896
:109FC000C10F09184910604A1160104600687D21D0
:109FD0000901884202DD08461146086059480068B8
:109FE00059490968401A5949086000BFB8E713B5D4
:109FF00068460078012800D01CBD5548007801282B
:10A0000013D13A48007800F0ABFA3548007800F0F8
:10A01000BCFA02204E4908700A213948006800F055
:10A020003DFB0446FFF749FE2AE049480078022834
:10A0300026D12F48007800F093FA01204449087097
:10A0400044480078401C4349087008460078384965
:10A05000096888420CD300203E490870012030492D
:10A06000087039480068FFF728FEFFF76EFF07E029
:10A070000A212448006800F011FB0446FFF71DFE8A
:10A0800000BFB9E700202D490860704710B50120D6
:10A0900023490870002023490870FFF7F3FFFFF7FA
:10A0A00054FF0020FFF709FE10BD00000C21002026
:10A0B0002E2E5C6C6F63616C4C6962735C616C70BA
:10A0C000696E655F746C5F73746174655F6D616305
:10A0D00068696E652E63000044290020E42000209A
:10A0E000E6200020E8200020EC200020F0200020C6
:10A0F000F1200020F4200020F8200020FC20002087
:10A10000D4200020D8200020C9200020CC2000200E
:10A11000CD200020CA200020CB200020CE2000200F
:10A12000C52000200821002018210020192100202E
:10A13000E02000201C2100202021002004210020FC
:10A140002421002028210020DC200020D020002015
:10A150002D2100202E21002010B50120B5490870C6
:10A16000FFF7F3FEB4480068FFF7A7FD10BD13B575
:10A1700068460078012804D068460078022800D09C
:10A180001CBDAE480078002809D1162000F04DF91A
:10A190000120AA4908703220FFF78FFD36E0A7485A
:10A1A000007801281BD1022000F03FF9002000F0C8
:10A1B0003CF9A3480078002806D06420FFF77DFD15
:10A1C00002209E49087021E0162000F029F99D48E0
:10A1D0000068FFF772FD03209849087016E0974861
:10A1E0000078022807D1162000F01AF99548006877
:10A1F000FFF763FD0AE0022000F012F9002000F0F2
:10A200000FF900208D490870FFF7A6FF00BFB7E7E0
:10A2100013B5684604780078062803D107208549DD
:10A22000087006E068460078032802D106208149BC
:10A2300008708048007802282FD07E4800780128D6
:10A2400004D101990098FFF792FF26E07948007841
:10A25000032804D101990098FFF718FF1DE0754805
:10A260000078042804D101990098FFF7C0FE14E09B
:10A2700070480078052810D06E480078062804D170
:10A2800001990098FFF704FE07E06A480078072864
:10A2900003D101990098FFF703FD1CBD1CB50446CE
:10A2A00006226949694800F00DFA002068490870E3
:10A2B00014E0674A1278521C06235A43624BD118A5
:10A2C000634A127806235A435F4BD018062200F0E7
:10A2D000F9F95F480078401C5D4908705C480078D7
:10A2E0005C4909788842E4DB5A49097806225143DF
:10A2F000554A88180622584900F0E4F95548007874
:10A30000002804DD53480078401E524908704F4829
:10A310000078002800D11CBD06224C49684600F098
:10A32000D1F901990098FFF773FF00BFF3E71CB55F
:10A330000446002000900190684604703D48017872
:10A340006846417043480078062148433E49085C0E
:10A35000002804D03F480078401C3E4908703D4921
:10A36000097806225143384A88180622694600F0C7
:10A37000A9F93A480068FFF791FF1CBD10B50446E3
:10A380000120FFF7D4FF10BD10B504460520FFF7EC
:10A39000CEFF10BD10B50446002C03D10120FFF7FD
:10A3A000C6FF10BD00BFFCE77CB504460D4616464F
:10A3B0002B4903C9019100906846047045800671DD
:10A3C00024480078062148431F49085C002804D02F
:10A3D00020480078401C1F4908701E490978062251
:10A3E0005143194A88180622694600F06BF91D4846
:10A3F0000068FFF753FF7CBD704710B5FFF7FCFF07
:10A4000006200C4908700420FFF791FF10BD70B5BD
:10A4100004460D462A462146134800F053F970BD04
:10A4200001218140114A91607047012181400F4A0A
:10A43000D1607047C5200020DC2000202C210020A6
:10A4400001210020F82000200829002038210020C8
:10A450003E210020C4200020402100203421002083
:10A46000D4A701003021002044290020000500501D
:10A4700010B503210D2000F04EF80321182000F044
:10A480004AF803211B2000F046F803210F2000F0BA
:10A4900042F80321172000F03EF80321192000F0B4
:10A4A0003AF803211E2000F036F80C2000F02AF8BC
:10A4B0000E2000F027F8132000F024F81A2000F0F6
:10A4C00021F81C2000F01EF81D2000F01BF80220CF
:10A4D00000F018F8002000F015F8002000F012F845
:10A4E000162000F00FF8162000F00CF8002000F005
:10A4F00009F8012000F006F8022000F003F800F04F
:10A5000015F810BD03210522120707231B02D218DC
:10A510008300D150704710B58A0005231B0707241C
:10A5200024021B1984001A5110BD000010B50B2025
:10A5300000F087F8062000F084F8072000F081F88A
:10A54000082000F07EF8092000F07BF80A2000F0D7
:10A5500078F8052000F075F80B2000F080F810BDA9
:10A56000704710B50B2000F075F80020FFF7F8FFDA
:10A57000062000F06FF8072000F071F8082000F0C6
:10A5800069F8092000F06BF810BD10B50446364894
:10A590000068001934490860084600788007800F79
:10A5A00008600846006800280CD1062000F052F828
:10A5B000072000F054F8082000F04CF8092000F0C3
:10A5C0004EF82DE02848006801280CD1062000F044
:10A5D00041F8072000F043F8082000F040F8092077
:10A5E00000F038F81CE02048006802280CD1062052
:10A5F00000F035F8072000F02DF8082000F02FF8C3
:10A60000092000F027F80BE0062000F028F80720CA
:10A6100000F020F8082000F01DF8092000F01FF8D5
:10A6200010BD10B50B2000F015F8052000F012F851
:10A6300010BD10B50B2000F012F8052000F00FF847
:10A6400010BD03210522120707231B02D218830025
:10A65000D150704701218140044A91607047012127
:10A660008140024AD1607047482100200005005017
:10A6700030B50B46014600202022012409E00D469A
:10A68000D5409D4205D31D469540491B2546954022
:10A6900040191546521E002DF1DC30BD70B5002466
:10A6A0002546002801DA01244042002901DA01256B
:10A6B0004942FFF7DDFFAC4200D04042002C00D001
:10A6C000494270BD03460B439B0703D009E008C90C
:10A6D000121F08C0042AFAD203E00B780370401C52
:10A6E000491C521EF9D27047D2B201E00270401CE0
:10A6F000491EFBD270470022F6E710B513460A4602
:10A7000004461946FFF7F0FF204610BD10B5044679
:10A7100005E00B780370401C002B00D0491C521E32
:10A72000F7D2204610BD0000064C0125064E05E07C
:10A73000E36807CC2B430C3C98471034B442F7D362
:10A74000FBF7C2FCDCA70100ECA7010030B58C18B8
:10A750000278401C13071B0F01D10378401C12091B
:10A7600006D10278401C03E005780D70401C491C9E
:10A770005B1EF9D101E00B70491C521EFBD1A142B6
:10A78000E6D3002030BD30B47446641E2578641CC6
:10A79000AB4204D3635D5B00E31830BC18471D4631
:10A7A000F8E702E008C8121F08C1002AFAD1704772
:10A7B0007047002001E001C1121F002AFBD1704741
:10A7C0000F180100B326110C0110C17982CA38722A
:10A7D000000002B60004000000000000ECA7010029
:10A7E000002000204C0100004CA70100840024F44C
:10A7F00044FFFF0304B310000342063A013C50013A
:10A80000000100E803822833B80B6205350100A07F
:10A810000F426482644264022428C3E803021F01D9
:04000005000160C1D5
:00000001FF
